:10000000000001202113030059130300A1E10200A5
:100010005D130300ADE10200B3E102000000000047
:1000200000000000000000000000000019F80200BD
:100030006513030000000000B1F80200C1F80200DF
:100040006B13030075C502006B1303006B130300F1
:100050006B1303006B1303006B1303006B1303009C
:100060006B1303006B13030009D9020039D8020097
:100070006B130300B93503006B1303002DCF02008F
:100080006B1303006B1303006B1303006B1303006C
:100090006B1303006B1303006B1303006B1303005C
:1000A0006B1303006B1303006B1303006B1303004C
:1000B0006B1303006B13030000000000000000003E
:1000C0006B1303006B1303006B1303006B1303002C
:1000D0006B1303006B1303006B13030010B5054C87
:1000E000237833B9044B13B10448AFF300800123E4
:1000F000237010BD000C00200000000080A0030051
:1001000008B5034B1BB103490348AFF3008008BD9A
:1001100000000000040C002080A00300154B002B01
:1001200008BF134B9D46A3F5803A00218B460F462E
:100130001348144A121A35F059FB0F4B002B00D00C
:1001400098470E4B002B00D0984700200021040058
:100150000D000D48002802D00C482EF02BFD34F085
:1001600049FE200029002FF0E1F92EF020FD00BF0C
:1001700000000800000001200000000089F40200D7
:10018000000C0020407D0020B5EB020000000000C4
:100190000368184710B5054B0360044600F072F879
:1001A000204600F0BBF9204610BD00BF5865030093
:1001B00070470000C36810B52BB9044904484FF4D8
:1001C000FD722EF0EDF8BDE81040184718650300E9
:1001D0003665030084B070B505AD85E80E001021CA
:1001E000064600F048FA044678B195E80F0084E826
:1001F0000F002046074900F0E6FB22463046BDE8E6
:100200007040054904B000F0F6BABDE8704004B093
:10021000704700BFB1010000B50100000368012272
:100220001B6900211847036800221B691146184703
:100230006FF01500704770B5D0E90213D0E90825BA
:100240000446521845EB030300F058F9636B23B1E1
:1002500004F12800BDE87040184770BD38B5044669
:10026000154600F035F9064B236000220023C4E94F
:1002700008230023636384F83850204638BD00BF4C
:100280005865030013B5044601A82DF011FE204661
:1002900000F03EF9636B23B194F838300BB12EF0C7
:1002A000BBFB0023636301A82DF00AFE02B010BD62
:1002B00070B5044615461E4600F02AF9C4E90856F2
:1002C000A0692DF0BAFD2A1846EB01032046BDE8CF
:1002D000704000F013B984B073B5054607AC01A8AF
:1002E00084E80E002DF0E4FD6B6B23B995F83830EF
:1002F0000BB12EF07BFB94E80F0005F1280686E891
:100300000F00DDE90C232846FFF7D2FF01A82DF0EE
:10031000D7FD02B0BDE8704004B0704710B5044688
:100320002DF040FB002201462046FFF797FF024BCD
:100330002360204610BD00BF4C65030030B5436B01
:1003400085B00446B3B100F128030FCB6D4685E8B4
:100350000F000023636394F838300BB12EF05CFB80
:10036000039B2BB9044905484FF4FD722EF018F891
:100370002846984705B030BD186503003665030070
:1003800010B504462DF080FD012201462046FFF7FE
:1003900065FF024B2360204610BD00BF646503006B
:1003A00010B504462DF0FEFA002201462046FFF764
:1003B00055FF024B2360204610BD00BF706503004F
:1003C000437D10B504461BB1037D0BB12EF024FB19
:1003D000204610BD13B5044601A82DF069FD637DCC
:1003E00053B9237D0BB12EF001FB20692DF025FDC3
:1003F000C4E900010123637501A82DF061FD02B07D
:1004000010BD37B504460D4601A82DF051FD00235F
:100410000022C4E900236B7D4BB128692DF00DFD4E
:10042000D5E90032C01A61EB0201C4E9000101A85C
:100430002DF046FD204603B030BD30B585B00446F2
:100440000D4603A82DF034FD29466846FFF7D9FF75
:10045000D5E90210009B019A5B1840EB0202C4E947
:10046000003203A82DF02CFD204605B030BD13B599
:10047000044601A82DF01CFD20692DF0DEFC0022B1
:100480000023C4E90001C4E9022301A82DF018FDEE
:1004900002B010BDD0B5002300260027C0E90067D8
:1004A000C0E902670446016102754375FFF7DFFF8B
:1004B0002046D0BD10B504462DF074FA0022014646
:1004C0002046FFF7E7FF204610BD03681B6818476A
:1004D00010B50446074B236000220023C4E9022321
:1004E00000230846A161C4E9043303492DF01CFC34
:1004F000204610BD88650300CB04000007B50090BE
:1005000000F1080180692DF04EFC03B05DF804FB9A
:1005100000F1080180692DF075BC000010B5034B97
:1005200003600446FFF7F4FF204610BD8865030012
:100530000020704700290CBF6FF0180000207047A2
:10054000012070476FF0150070476FF0150070477D
:1005500084B001A880E80E0004B0704738B50023CD
:100560000446836519B90A4600F00FF803E0002A33
:10057000FAD100F042F8204638BD10B5044600F02C
:100580004FF8204610BD00F057B9032938B504468E
:1005900007D9D31C23F003039A1A8A1A22F0030105
:1005A0001A460023C4E90433E2600D4605BBC4E9E2
:1005B00006512262256000F009FA00F009FAC4E948
:1005C0000A556060258184F8245004F1300000F061
:1005D0001FFA00280BDB04F1440000F011FA002898
:1005E00005DB04F1480000F00BFA00EAE07038BDCA
:1005F0002369013323616D08D8E737B505460846FE
:10060000019134F09DFC044638B102460199284618
:10061000FFF7BBFF6C6103B030BD4FF0FF30FAE76E
:1006200070B505680446B5B9A36A1BB1E06A4FF01E
:10063000FF31984704F1480000F0E4F904F1440068
:1006400000F0E0F904F1300000F0EAF96069BDE87B
:10065000704034F07DBCEE6836B9EB6913B105F13A
:1006600024009847AD68DEE7F36913B106F1240072
:100670009847F668F0E773B5064627314830019091
:1006800021F0030500F0BFF9B469019806F11803E1
:100690005CB9F3699D4223D8346A5B1BF36162192C
:1006A000012332622560237107E02268954213D846
:1006B000E26872B11A60A368936000F0A6F90023A3
:1006C0004FF0FF32C4E90532E3612434204602B022
:1006D00070BDA2681A60F0E704F10803A468D7E7C8
:1006E00000F093F9F2E751F8083C73B505460C4663
:1006F0000BB108469847EB6833B1A4F12406B34226
:1007000002D82B6AB34204D2002304F8203C02B082
:1007100070BD05F14800019000F075F9AB690198D2
:1007200005F11802ABB11D6854F8241C8D420CD39E
:100730000FD144F8183C13689B6844F81C3C1660C1
:1007400002B0BDE8704000F060B903F108029B6898
:10075000E8E7002344F8183C1368EEE7F8B54B6966
:100760009B1A002BACBFD318131C4B61437A4B71FF
:1007700000F14407054638460C46164600F043F99A
:10078000284603687BB359696269A1EB020CBCF18E
:10079000000F25DB914226D19B68A36013B104F1C1
:1007A00008021A612246036842F80C3F0021996052
:1007B0001A61AB6A046020616BB195F8242052B1D4
:1007C0002A68A24207D1E2682AB96169E86A891BEE
:1007D00021EAE17198473846BDE8F84000F015B9C4
:1007E00003F10800CDE7A36013B104F108021A6118
:1007F0000023E360DDE7F8B5144605460F46A2F195
:10080000240600F0E5F854F8103C44F8047C034456
:10081000024644F8103C31462846FFF79FFF2969FD
:1008200014F8204C8C40E968761A05F13000344306
:1008300000F0F8F82046F8BD2DE9F74F04460F46C2
:1008400000F0C6F84FF00008054607EB000984F8F1
:10085000248004F14406304600F0D5F8637A013371
:10086000637263685B1B002B2368D8BF65600193CC
:1008700001A91BB15A69521B002A33DD236003B161
:100880001C613046C1F8008000F0BFF8019B01A850
:1008900063BB019D4FF0010A002D34D100F098F8A0
:1008A000002F82465CDBA9EB0005002D5ADCA36A11
:1008B0009BB1304600F0A7F8A36A43B1226832B179
:1008C0005169E06AA1EB0A0121EAE171984701232D
:1008D00084F82430304600F098F80023237203B0E7
:1008E000BDE8F08F03F108019B68C2E79D681A46D6
:1008F000002191601146D268002AFAD1016003F10B
:1009000008002B46C4E72B6AD5F808B013B105F1EF
:1009100024009847AA69002A0BDB6B6913446B61BA
:1009200000F056F8294602462046FFF717FF5D46BD
:10093000B2E7E36873B1AB420CD8236AAB4209D388
:100940002B7922690133DBB213FA02F214BF2B7147
:1009500085F804A005F124012046FFF7C4FEE6E770
:100960004FF0FF35304600F04EF823683BB159692F
:10097000A1EB0A0121EAE1718D4228BF0D46304604
:1009800000F043F8294604F1300000F04EF8237AD5
:100990007BB1304600F037F8237A3BB10023304674
:1009A000237203B0BDE8F04F00F02FB8304600F0DE
:1009B0002CF800F00DF805464DE740F8101C704784
:1009C00040F80C1C704740F8081C70472DF074BFAD
:1009D00007B52DF0E0FD70B1084B684619682DF0A1
:1009E000BDFADDE900014FF47A72002335F0BCFB5B
:1009F00003B05DF804FB2EF02BFDF9E72831002051
:100A00000020704770472DF0CDBD2DF0E1BD0000F6
:100A100008B502492EF0F6FC002008BD8C650300E5
:100A20002EF0F9BC01212EF0F3BC08B5012341EAF8
:100A3000E17219462EF00AFD431E5842584108BD86
:100A4000704703680BB1084618477047F0B5466811
:100A500032680446D7680B4607C987B0DB68049341
:100A600001AD002385E80700059321682A4630463A
:100A7000B84707B0F0BD0000436807B52BB9064979
:100A8000064800931A462DF0FDFE1A6812691846B2
:100A900003B05DF804EB1047936503004301188031
:100AA000436807B52BB90749074800931A462DF04C
:100AB000E9FE002202771A685269184603B05DF811
:100AC00004EB10479365030043011880436807B5A2
:100AD0002BB90649064800931A462DF0D3FE1A6832
:100AE000D269184603B05DF804EB10479365030024
:100AF00043011880436807B52BB90649064800939F
:100B00001A462DF0BFFE1A68526A184603B05DF807
:100B100004EB1047936503004301188013B50446A6
:100B20002DF040FD237F23B902B0BDE810402DF029
:100B30004FBD002323772DF04BFD63682BB9064989
:100B4000064800931A462DF09DFE1A6892681846D2
:100B500002B0BDE8104010479365030043011880C0
:100B600037B503460C4600F1080507C985E80700BC
:100B70000021E2689961197F5A6121B118B101938E
:100B800001A92846904703B030BD13B504462DF0A7
:100B900009FD237F1BB12DF01BFD02B010BD012309
:100BA00023772DF015FDA36804F10800002BF4D085
:100BB0006369019401A99847EFE7000038B50C4A32
:100BC00001600023C0E9033304464360836183600E
:100BD0004261037749B9074D2B6813B900F03AFE1B
:100BE0002860236855F823306360204638BD00BF75
:100BF000430A0000440C002070B560B9104C266810
:100C00003EB920202EF0C2F931460546FFF7D6FF47
:100C10002560206870BD0B4C2378BFF35B8FDB072A
:100C200001D50948F6E720462DF0CEFF0028F8D080
:100C300001210548FFF7C2FF20462DF0E7FFF0E74E
:100C4000200C00201C0C0020240C0020704708B54C
:100C50000846FFF7D1FFBDE80840FFF796BF82B016
:100C60000346684680E8060003C883E805000022C2
:100C700018461A7202B0704710B542680446002147
:100C8000006834F0B3FD0023237210BD70B5057AFF
:100C9000C9B200239D4209D90468E21856788E42F1
:100CA00005D0E25C01321344DBB2F3E700221046C8
:100CB00070BD73B5044602A800E90C00019AFE2A33
:100CC0001EDC207A656883180133AB421ADA236888
:100CD000D5B26E1C1E54237A20680133DBB2237216
:100CE000C154237A206800990133DBB2237218447F
:100CF00034F076FC237A1D442572002002B070BDCA
:100D00000420FBE70120F9E738B5044608460978D6
:100D10000131CDB22A4650FA81F134F0FBFC237A3E
:100D20005B1B2372002038BDF7B5FE2B6D460E46C7
:100D300085E80C00089F044619461DDC3A78013A04
:100D4000D2B29A4206D10099B81C34F049FC002076
:100D500003B0F0BD037A9A1A43680A449A420DDC44
:100D60003946FFF7D1FF95E80C003146204603B025
:100D7000BDE8F040FFF79DBF0420E9E70120E7E769
:100D80007FB502AC84E80C0005460E46FFF77EFFF7
:100D900040B1009094E80C0031462846FFF7C4FFAC
:100DA00004B070BD94E80C003146284604B0BDE89C
:100DB0007040FFF77EBF0000002A08B5C0E90012AE
:100DC00005DA074907484FF40E722DF0E9FA29B900
:100DD00022B10349044840F23922F6E708BD00BFBA
:100DE000B6650300D0650300DB6503007FB501260F
:100DF00002AD04468DF8071032460DF10701284672
:100E0000FFF7DAFF95E80C0031462046FFF7B8FF00
:100E100004B070BD7FB5054608461646019135F011
:100E20000FF802AC024601992046FFF7C5FF94E88F
:100E30000C0036B14FF009012846FFF7A1FF04B0BE
:100E400070BD4FF00801F7E7002A08B5C0E90012AD
:100E500005DA074907484FF40E722DF0A1FA29B9B7
:100E600022B10349044840F23922F6E708BD00BF29
:100E7000B6650300D0650300DB65030013B54B685E
:100E80000A7A9A42044605DD0849094840F2E622FA
:100E90002DF086FA09686846FFF7D6FF009B2360AD
:100EA000019B6360204602B010BD00BFB665030021
:100EB000F5650300002202608280704700207047C1
:100EC00070470220704706F043BB0000054BDB6F04
:100ED0009A0605D5044B1B689B0601D506F07BB925
:100EE00006F0D3B9B03B0020E8000020024A0260BF
:100EF0000022C0E9042170478066030010B5044653
:100F0000406903689B689847236820461B6ABDE8D0
:100F100010401847036810B504465B6A984760693B
:100F20000368BDE81040DB681847000007B5019171
:100F300000F060FC0368DB699847019903F0FCFB53
:100F400020B10449044866222DF02AFA03B05DF866
:100F500004FB00BF126603006266030030B50B7825
:100F60000E2B85B005460C461CD10979E37803EBBE
:100F7000012399B242F20F03994204F106025AD8B2
:100F8000B1F5005F10D840F66343994200F09880B5
:100F900030D840F60143994200F08A8040F603437E
:100FA00099427ED005B030BDA1F50053013B0E2B18
:100FB000F8D801A252F823F0B9100000CD100000BB
:100FC000F9100000A50F0000C7100000A50F0000D9
:100FD000A50F0000A50F0000A50F0000A50F000041
:100FE000A50F0000A50F0000A50F0000A50F000031
:100FF000EB10000041F20103994245D041F2090390
:101000009942CFD1594811466C4610F059FB002344
:101010000093A3802B6821465B69284698470028E7
:1010200051D094E803000290ADF80C10284602A9B4
:10103000FFF77CFFB6E742F2240399427ED00FD837
:1010400042F21803994200F0878042F21C03994251
:10105000A8D110685168464B03C306F046F9A1E7D2
:1010600042F22F0399425CD006D842F22A039942F9
:1010700098D1A2793F4B4FE042F23B0399420BD803
:1010800042F2390399428DD93A4BD3F89030002B74
:1010900088D01046984785E742F24A039942F3D038
:1010A00080E7354B354800221A7006F063FA79E77D
:1010B000334806F08BF975E7324806F06EFA71E7AF
:1010C00006F01DFA6EE706F0ECF86BE7E179A2791D
:1010D000284B02EB0122A3F87220227A83F87720B2
:1010E00083F8762006F0F5F85CE7224BA27983F8C6
:1010F000782006F0E2F855E7E379A27902EB0322C3
:101100001C4B5106DA6706D51F4A1268520602D5F3
:1011100006F0BBFA46E7002283F88120FFF7D6FEEF
:1011200040E7617A237AE279A07903EB012100EBB1
:10113000022089B280B206F017F833E70D4BD3F8DE
:10114000902012B106F0E7F92CE7A3F88220A3F86B
:10115000842006F09AF825E7074A1378022B02D874
:1011600001331370F5E710F0E1FB1BE70C3C0020A6
:10117000043C0020B03B0020480C0020746C0300AD
:10118000846C03007C6C0300E8000020406910B40C
:1011900004682469A4465DF8044B6047036910B5F0
:1011A00004461BB1043098470023236110BD0000A2
:1011B000F8B5084F05460C465CB1FF2C264628BF03
:1011C000FF2628463B68F1B2A41B9847A4B23544D9
:1011D000F2E7F8BDE4000020704770470079831EF5
:1011E000584258417047000000487047D0680300DB
:1011F0000368DB691847704703685B6B184703682F
:101200000BB10846184770477047704770477047E2
:101210007047704770477047704770477047704716
:1012200070477047F0B50746406889B00D46E8B191
:10123000142010F097F8044620B9104910484E22A7
:101240002DF0AEF895E80F0084E80F006E4604AD6F
:1012500086E80F0085E80F0000232361FB683BB997
:10126000FC60D7E90101FFF7F2FC012009B0F0BDF5
:101270001A461B69002BFBD11461F2E7A866030034
:10128000F0660300036A0BB1143018477047036916
:101290000BB104301847704710B5042104462DF0F7
:1012A0008BFE204610BD10B5042104462DF084FEAF
:1012B000204610BD01F024BC07B5019101F020FCCF
:1012C000019900F0E5FE002003B05DF804FB13B5C2
:1012D0000C4601F015FC0146684600F0CCFE009B70
:1012E0002360019B6360002002B010BD03460078BC
:1012F0009B78272B02D0282B03D07047002108F0C1
:10130000B5BD08F0F3BD00007FB51C4C2378BFF3DA
:101310005B8FDA0705460ED420462DF055FC50B100
:10132000174E184B336020462DF070FC164A1749B3
:1013300030462DF03AFC164C2378BFF35B8FDB0769
:1013400018D420462DF040FCA0B103F041F80390E2
:1013500003F00AFB039A0A4B009005F10C010D48BB
:1013600003F0F8FD20462DF051FC074A0A490948D0
:101370002DF01BFC074804B070BD00BF940C00208A
:10138000DC0E00200C680300E0000020DB110000F0
:10139000980C0020E00E00203544000038B5037999
:1013A000022B04461ED1002303710F4B1868FFF770
:1013B000B1FD236820465B6A984701F059FC236819
:1013C0002046DB6A984701F019FF23682046DB6955
:1013D000984704F02DF9A06928B105690FF0E4FFE2
:1013E000A561F8E7092038BD9C0C002038B5064BF4
:1013F00003600446406828B1056914212DF0DCFD26
:101400002846F8E7204638BDEC67030010B50446CF
:10141000FFF7ECFF20460C212DF0CEFD204610BD3D
:1014200038B5064B03600446406828B105691421AD
:101430002DF0C2FD2846F8E7204638BDDC670300E2
:1014400010B50446FFF7ECFF20460C212DF0B4FD4B
:10145000204610BD38B5064B03600446406828B1ED
:10146000056914212DF0A8FD2846F8E7204638BD6F
:10147000FC67030010B50446FFF7ECFF20460C2183
:101480002DF09AFD204610BD38B5064B036004468A
:10149000406828B1056914212DF08EFD2846F8E733
:1014A000204638BD8468030010B504462830FFF795
:1014B000EBFF04F11C00FFF7CDFF04F11000FFF774
:1014C000AFFF201DFFF792FF204610BD10B5044668
:1014D000FFF7DAFF20460C212DF06EFD204610BDEF
:1014E00038B5064B03600446406828B105691421ED
:1014F0002DF062FD2846F8E7204638BD2468030039
:1015000010B50446006A10B103685B68984720462E
:10151000FFF7E6FF204610BD10B50446FFF7E0FFD9
:1015200020460C212DF048FD204610BD70B4D0E9B6
:1015300001340568661005EB6400E40744BFAC594C
:10154000E35870BC184730B4D0E901320468551034
:1015500004EB6200D20748BF625930BC48BFD35881
:101560001847000010B5054B03600446FEF78AFEDD
:101570002046FEF7D3FF204610BD00BF586503008C
:1015800010B5054B03600446FEF77CFE2046FEF7CF
:10159000C5FF204610BD00BF5865030038B50A4B93
:1015A000044640F8203BFEF70BFF084BE360A069C0
:1015B00020B105690FF0F8FEA561F8E72046FFF7B6
:1015C00045FB204638BD00BF9468030078680300DF
:1015D00010B50446FFF7E2FF204640212DF0ECFC59
:1015E000204610BD37B50D46044601922AF00CFF87
:1015F000019B2A46214603B0BDE83040FFF7C6BD37
:1016000010B52AF001FF0368BDE81040DB681847F9
:1016100007B501902AF0F8FE036801991B6903B031
:101620005DF804EB1847000070B54E4B196888B0A0
:1016300029B94D494D4840F285122CF0B1FE0B6896
:101640004B4E9B684B4D04A89847049B059C0699FC
:101650009DF81C0033602C600FF018FE83B223B994
:101660004149454840F29312E7E7336882B213FAE2
:1016700080F02B6830609B1A94422B6006D90023BF
:101680003E493F480093A21A2DF0F4F80FF0AAFF4C
:1016900007F0D4FC07F0E4FC07F03EFB07F01CFC6D
:1016A00007F06CFC374810F099F90CF0C1FF364890
:1016B00010F094F903900BF063F90CF057FC0BF069
:1016C0004FFC0BF0FFFD0BF0E9FE0CF03DFD0CF0C4
:1016D0008DF80CF09FFD0CF0BFF903980CF004F8A6
:1016E0002A4810F07BF90DF09BF90DF027F80DF06A
:1016F00041F90DF07FF8264810F070F907F0BAFDB7
:1017000008F032FF08F0EAFD224808F043FF09F034
:10171000F1FE08F045F808F01FFB1F4810F05EF9D5
:101720000EF048F80FF09EFD0FF092FD0FF0FAF961
:101730000FF0EEF9194810F051F9194B18704620C6
:1017400005F076FB17480BF09DFF164903200BF0C0
:101750001BFC154807F0D2FD144808B0BDE87040E6
:1017600007F0B2BD9C0C0020026703004C67030029
:10177000780C0020740C0020606703007067030081
:101780000501188045E6000001D7000031EA00009D
:10179000AD920000671D000019F800005918000004
:1017A000F80F0020F5180000ED120000CD660000D3
:1017B00038B50D4A0D4B036000230446C0E90323EE
:1017C000C0E905330371836020300D46FEF772FED9
:1017D00000220023C4E90E23054B20461D60FFF7BD
:1017E00023FF204638BD00BF7868030094680300DB
:1017F0009C0C002010B50D4C2378BFF35B8FDB07EA
:1018000011D420462DF0E0F968B12AF0FDFD014623
:101810000748FFF7CDFF20462DF0F8F9054A0649A5
:1018200003482DF0C2F9024810BD00BF880C00200B
:10183000900D0020E00000209D15000008B5FFF786
:10184000D9FFBDE808400021FFF701BA08B5FFF74E
:10185000F5FF08BDFFF7CEBF13B50C4671B303F01B
:1018600083F8204604F0B6F840BBA278202A05D0C1
:10187000672A25D0204604F017FD1FE0CDE90000BF
:10188000FFF7BAF9009006F037FAC30407D50AF05B
:101890000DFF0CF081FA0BF0D5FC0BF0CBFDFFF740
:1018A000A9FF03685B6A984700F050FDFFF7A2FFAD
:1018B000022303710D486946C368984702B010BD02
:1018C000E378002BD6D1228842F21F039A42D1D16D
:1018D000A3796279217902EB0322054BB1FA81F1F8
:1018E000186892B24909FFF759FCE7E7A00C0020FD
:1018F0009C0C002010B54388412B04460AD102F00D
:1019000067FD006870B16389E2882188BDE81040F6
:1019100002F054BEFFF76EFF21460020BDE81040E4
:10192000FFF79ABF10BD000008B5044B1868FFF719
:10193000E5FABDE808400BF03BBE00BF9C0C002060
:10194000F7B50479012C05460F46164619D0022C2E
:1019500019D0D4B920300190FEF789FD0198FEF727
:1019600039FD96E807000A4BC5E9045783E80700EC
:10197000F2682846C3E90324FFF7D6FF204603B0E8
:10198000F0BD0924FAE70024F8E70B24F6E700BFCE
:10199000A00C002070B504468CB0A06970B1D0E9ED
:1019A00003352BB93D493E484FF4FD722CF0F8FC4D
:1019B0009847A0690FF0F8FCA561EEE704F1200557
:1019C000294604A8FEF739FDD4E90E3204995B18C4
:1019D000059941EB0202C4E90E322846FEF747FDA5
:1019E000D4E90E014FF47A72002334F00DFC054661
:1019F0000E4670B10FF01CFE4FF47A73A5FB030185
:101A000003FB0611D4E90E321B1A62EB0102C4E992
:101A10000E32244C0FF0F8FF2378BFF35B8FDB0707
:101A20000ED420462DF0D0F850B11F48FEF7B8FC78
:101A300020462DF0EBF81D4A1D491B482DF0B5F846
:101A400007A82CF035FA0FF0D5FFC8B10DF11F0033
:101A50000FF00AFE9DF81F30BBB10021CDE909113E
:101A60004FF47A71A0FB0101CDE90201114A124B3A
:101A70000893009208AB0B920B480ECBFEF72BFCA1
:101A800007A82CF01DFA0CB070BD2CF021FA0B4BFE
:101A9000186803689B699847F2E700BF1865030060
:101AA00036650300840C0020500D0020E00000206B
:101AB00065150000910100004D1800009C0C0020ED
:101AC00030B51C4D2B78BFF35B8FDB078BB0044622
:101AD0000ED428462DF078F850B11748FEF750FC88
:101AE00028462DF093F8154A154913482DF05DF856
:101AF0002046FFF74FFF0FF07DFFC8B10DF1170033
:101B00000FF0B2FD9DF8173093B10021CDE9071118
:101B10004FF47A71A0FB0101CDE90201094A0A4B99
:101B20000693009206AB099203480ECBFEF7D3FB57
:101B30000BB030BD7C0C0020B80C0020E000002071
:101B400081150000910100004D180000FFF722BF31
:101B500010B510220446002133F048FE204610BD87
:101B600070B504462F480578BFF35B8F15F001056B
:101B700055D12DF029F8002851D002F0F5FE236848
:101B80000646DB6920469847274C284B284A666161
:101B9000C4E900352346103043F8102FE360254B8D
:101BA000A061C4E9073504F12400FFF783F904F1CB
:101BB0002A00FFF77FF904F13000FFF7C9FF04F1B5
:101BC0004000FFF7C5FF04F15000FFF7C1FF04F12B
:101BD0006000FFF76FF904F16600FFF7B9FF0F230C
:101BE00084F877304FF4807384F87650A4F8783016
:101BF00084F87A5004F17C067019143502F02EF83E
:101C0000642DF9D1636907481C60012384F85030C2
:101C10002CF0FCFF084A094903482CF0C6FF024893
:101C200070BD00BF900C0020F80D00202468030058
:101C300034680300D80E0020E000002001150000E9
:101C400010B5094C094B0022C0E90821026002616D
:101C5000C1E90142064C0860C1E90532054BCB6180
:101C6000C1E9034010BD00BF8F12000085120000C3
:101C70002D1500004715000070B517480378BFF315
:101C80005B8FDB0725D42CF09FFF10B3134E347805
:101C9000BFF35B8F14F001040FD130462CF094FF9A
:101CA00058B10F4D3046C5E90744EC602CF0AEFF4B
:101CB0000C4A0D4928462CF078FF09490B48FFF7DC
:101CC000BFFF05482CF0A2FF064A094907482CF03F
:101CD0006CFF064870BD00BF8C0C00204C0C00202F
:101CE000500C0020E0000020D9110000D00D002091
:101CF000F711000038B50E4C2378BFF35B8FDB077C
:101D0000054612D420462CF05FFF70B12846FFF73D
:101D1000B3FF0146074801F08DFA20462CF076FF0C
:101D2000054A064903482CF040FF024838BD00BF71
:101D3000800C0020F80C0020E0000020A914000016
:101D4000044B0022C3E901221A611A60024ADA60D8
:101D5000704700BFA00C0020FF11000003680BB10A
:101D60000846184770471FB50190FFF743FD036809
:101D70001B6B9847002301998DF80C3003AA01F0E2
:101D8000B5FF38B99DF80C30042B18BF052005B0FD
:101D90005DF804FB0520FAE738B5064B03600446FE
:101DA000406828B1056914212DF006F92846F8E7A6
:101DB000204638BDE868030010B50446FFF7ECFF85
:101DC00020460C212DF0F8F8204610BD38B5064B02
:101DD00003600446406828B1056914212DF0ECF831
:101DE0002846F8E7204638BDF868030010B50446D9
:101DF000FFF7ECFF20460C212DF0DEF8204610BD49
:101E000010B504462C30FFF7E1FF04F12000FFF786
:101E1000EDFA04F11400FFF703FB04F10800FFF7EB
:101E2000BBFF204610BD0346002210B503F8012B6E
:101E300000F1110403F8012B9C42FBD1418210BD3B
:101E400008B503783BB90A789AB9408A4B8AC31A15
:101E50005842584108BD012B0BD10B78012B08D1FA
:101E600010220131013033F08BFBB0FA80F04009D1
:101E7000F0E70020EEE70000C06A044B002818BF1E
:101E80001846003818BF0120704700BF410A000003
:101E9000006C044B002818BF1846003818BF0120FA
:101EA000704700BF410A0000012070472DE9F04350
:101EB000074687B0002601243B7DB34233DDF2B2F2
:101EC00002349A42A4B22AD2BB6953F8268098F809
:101ED00028301C4498F8203013F0300FA4B206D0FC
:101EE000002598F82830AB4203D80134A4B201365B
:101EF000E2E7EAB2934286BFD8F8243053F825903F
:101F00004FF0000942F6021101A8FFF78CFF01A96A
:101F10004846FFF795FF0028E9D10135E1E70023A6
:101F200093F82830FFDE204607B0BDE8F08338B5CF
:101F30004B6991F820500C4673B90B8B63B9022D95
:101F400003D10846FFF798FF90B115F04C0F03D06E
:101F50002046FFF79DFF58B1402D0AD1E07FC0F326
:101F60000110033000F0030001288CBF0020012085
:101F700038BD0120FCE70000F0B590F84031132B8C
:101F80004BD8274DB0F8A03291F820602C46013391
:101F900014F8127BA0F8A03201351368002F18BF87
:101FA0002C461C6090F84041783400EB44045C609F
:101FB00003F10C049C601B4CDC6090F84031B0F8DD
:101FC000A052062404FB0304A4F8785016F0100570
:101FD00018BF0125A4F87A50B40608D5062404FBDE
:101FE0000304B4F87A5045F00205A4F87A5091F849
:101FF0005450062404FB0304C5F3010584F87C5007
:102000008C8B03F18C01013320F8114080F84031B2
:102010001368103313600020F0BD0720FCE700BFF9
:1020200000100020020020112DE9F3410DF10207FC
:10203000084616461D4601AA00233946ADF802306F
:10204000019308F05FFB044688B9BDF8028046B1F1
:102050002988414598BF2F4630463A88019933F088
:10206000BFFAA5F80080204602B0BDE8F081032445
:10207000F9E7FFF7D9BFB1F831220280B1F8332276
:102080004280B1F835228280B1F83722C280704791
:102090000B88A0F831324B88A0F833328B88A0F837
:1020A0003532CB88A0F8373270470000B0F8A02254
:1020B0000346F3B40021C0F89811501CA3F8A801FE
:1020C0004748C3F8A0014748C3F8A40103F5D670F8
:1020D000C3F89C014448C3F8AC014448444DC3F8DC
:1020E000B00103F5DC70C3F8B401571DD01CA3F890
:1020F0001D02A3F8257228883E4FA3F81F0203F59E
:102100000770B7F800C0C3F8C001C3F8CC5103F59D
:10211000E47003F22225C3E97415C3F8C401A3F8DF
:1021200027C23548354D364C364EC3F8D85103F5E5
:10213000097C0225C3F8E0C103F5F47CC3E979C04A
:10214000C3F8B861C3F8BC41C3F8C801A3F82212B0
:10215000C3F8DC41A3F82A1283F8245203F5FC717A
:10216000C3F8EC71C3F8F861274EC3F8F41103F219
:102170002A21C3F8F0113188A3F82F1203F50B714F
:10218000C3F8001203F50271C3E981101F49C3F8B7
:10219000FC410868496883F82C526C4603C46C46BD
:1021A00003CC03F23127C3F8351203F50671C3E9F6
:1021B000847107321649C3F8310292B203F5CC702C
:1021C000A3F8A022A3F82D22C3F80C62C3F81812BA
:1021D00083F81C52A3F8AA2102B0F0BC08F0E0B9C1
:1021E000A32D0000952C0000006E0300F86D030085
:1021F000F66D0300F06D030005000001F800080112
:10220000F26D030002000001FE6D0300006903008F
:1022100008000001B0F8A012394A4B1C70B5A0F8B4
:102220004C32384BC0F84432374BC0F8483200F5D6
:102230001473C0F84032354BC0F85032344BC0F8FC
:10224000543200F51773C0F85832324BC0F85C3284
:10225000CB1C044600259BB2C0F83C52A0F8A0322B
:10226000A0F891321088A4F893022B48C4F86002B9
:1022700004F52470C4F8640204F51B70C4F8680205
:102280002648C4F87C52C4E99B0204F51F72C4E9D5
:102290009D52234AC4F8802294F8402102F178002C
:1022A00004EB4000C4F8840204F52370C4F88802EB
:1022B0001C48C4F88C02202084F89002062000FB01
:1022C00002400226A0F87830A0F87A6080F87C50AE
:1022D00002F18C003144013224F8101084F84021BE
:1022E00004F50F70A4F84E3208F05AF994F8400142
:1022F0000D4A04F17801BDE8704007F0A9BD00BFA8
:10230000026E0300A32D0000952C0000006E030058
:10231000FC6D030002000001F26D030005000001E6
:10232000F46D030002002011A32E000090F8A232E9
:1023300010B504464BB9012380F8A232FFF7B6FE70
:102340002046BDE81040FFF765BF10BD10B504463C
:10235000034808F01FF92046BDE81040FFF7E6BF2C
:10236000671D000010B5044601F1080032F0E8FDD9
:1023700028B1D4F89C320360C4F89C02043010BD2C
:1023800070B51546B0F8A0222E68124B0132A0F8A5
:10239000A02233600B78012B0C460CBF10210221C8
:1023A000B181FFF7DFFF2B6822787060586872B93F
:1023B00004F112019A8933F013F92B6803F10C022E
:1023C0009A604FF48072DA8110332B6070BD611C0B
:1023D000F0E700BF006E0300F8B5B0F8A032176850
:1023E00002339BB2A0F8A0328B83164B3B600B7874
:1023F000002B3B460C4614BF1321052123F80C1F6C
:10240000BB6015460646FFF7ADFF2B6878604FF4BA
:102410008072DA81586894F820200270B6F8A02201
:10242000A0F801202378033043B904F112010222FD
:1024300033F0D6F82B6810332B60F8BD611C1022E6
:10244000F6E700BFF26D03002DE9F0431E46B0F839
:10245000A03291F82070D6F8009001339BB2A0F81A
:10246000A0329383137887B0054688461446002B24
:1024700040F0A68002F11203218BC9F80030A9F8C0
:102480000C1028460231FFF76DFF3368C9F80800C9
:102490009868628B20F8022B5860616933F0A0F8CD
:1024A00033689A6810889A895B68121A0021184468
:1024B00033F09CF93268002393732178012908BF17
:1024C0000B46937342F6021101A8FFF7ACFC01A979
:1024D0002046FFF7B5FC80B395F84031132B7BD82D
:1024E000E37FD8077AD513F0060F77D10E9B3268B9
:1024F00001211970937B43F02003937395F84031C9
:10250000B5F8A002062202FB0352A2F8780017F0E9
:10251000100008BF0146A2F87A100846B90644BF69
:1025200040F00201A2F87A1003F18C02B8F81C10F6
:1025300025F81210013385F84031A37F31681BB1B3
:102540008B7B43F008038B730023CB73E37FDA07A5
:1025500014D50123CB73E37FC3F34103022B31D0A6
:10256000032B31D0012B01D10923CB73BB0705D538
:102570008B7B9D065CBF43F004038B73E37F1807DE
:1025800018D5CA7B42F01003CB73E37FC3F301136A
:10259000022B1BD0032B1CD0012B02D162F06F0247
:1025A000CA7317F04C0F05D08B7B9A065CBF43F0C3
:1025B00002038B7310313160002007B0BDE8F08357
:1025C000531C59E70B23D0E70F23CEE762F04F02ED
:1025D000E6E762F00F02E3E70720EEE70420ECE70E
:1025E0002DE9F0410B7891F82070D2F80080064672
:1025F0000C461546002B73D101F11203218BC8F84C
:102600000030A8F80C1030460231FFF7ABFE2B6803
:10261000C8F808009868628B20F8022B586061693E
:1026200032F0DEFF2B689A6810889A895B68002177
:10263000121A184433F0DAF82B6817F002021ABFA6
:10264000042199739A7317F04C001EBF997B41F0D7
:10265000020199732178012902BF997B41F00101A0
:102660009973A17F19B1997B41F00801997379069B
:1026700042BF997B41F0400199739ABBDA7378B1FC
:10268000D97B41F01002DA73E27FC2F30112022A11
:1026900039D0032A3AD0012A02D161F06F01D973EF
:1026A000DB7B07F0300703F044033B4307D12046B0
:1026B000FFF7E2FB18B92046FFF7EAFB50B196F8A6
:1026C0009431132B25D806EB83020133C2F8444121
:1026D00086F894312B6810332B600020BDE8F08120
:1026E0004B1C8BE70122DA73E27FC2F34102022A1C
:1026F00005D0032A05D0012AC1D10922BEE70B2249
:10270000BCE70F22BAE761F04F01C8E761F00F01A3
:10271000C5E70720E2E72DE9FF4706460D461746C5
:10272000FFF705FC00283BD03A462946304695F88D
:102730002090FFF751FE3A4629463046FFF750FFFA
:10274000044638BB8DF80F0080460DF10F0A95F84E
:102750002830434512D95FFA88F293428ABF6B6AE8
:10276000002253F82820CDF800A03B4629463046E9
:10277000FFF76AFE68B908F10108E8E719F03009C7
:102780000CD09DF80F302BB93A4629463046FFF75A
:10279000F3FB0446204604B0BDE8F0874C46F9E759
:1027A0000424F7E72DE9F3410F460546FFF7BEFD88
:1027B00018202CF0EBFB284B83600026274BC360CE
:1027C000044606603846FFF771FB01012846FFF713
:1027D000C9FD606048B9182120462CF0EDFB4FF090
:1027E0000108404602B0BDE8F081019001AA3946D7
:1027F0002846FFF7C5FDB5F8A0322382BB833B7D99
:10280000B34213DDF2B29A4236BFBB69002153F8DE
:10281000261001AA2846FFF77EFF804620B1182126
:1028200020462CF0C9FBDCE70136E8E7B5F8A0321A
:1028300063822046D5F89832C5F89842636107F064
:10284000AFFE074A95F8400105F1780107F000FB5B
:102850004FF00008C5E700BFA32D0000952C000035
:10286000A32E0000FFF79EBF30B590F8944100F50D
:10287000A2730022944206D953F8040B858B8D4233
:1028800002D00132F6E7002030BD002330B51370CE
:102890000624137890F840519D4208D904FB0305A3
:1028A000B5F878508D4204D001331370F1E7002061
:1028B00030BD0120FCE710B500231370137890F8A9
:1028C00040419C4207D903F18C0430F814408C42FB
:1028D00003D00133F1E7002010BD0120FCE773B500
:1028E0000E461146FFF7C0FF18B390F8545015F08C
:1028F00003051ED0FEF77EFF03681B6B984700247C
:1029000001AA31468DF8044001F0F0F998B9022D82
:102910009DF8040007D0032D07D0012894BF0020A4
:10292000012002B070BD0228F8E7031F5842584149
:10293000F7E70120F5E72046F3E72DE9F3471546D1
:102940000DF107029DF8287080460C461E46FFF7E1
:102950009CFFB0B1022E4DD12D88032420460AF0F1
:102960006BFB012805D19DF807102A46204607F089
:10297000D5FA013C14F0FF04F0D1002002B0BDE80C
:10298000F0872A463146204607F042FEA0BB002FC2
:10299000F3D10DF1070221464046FFF78CFF0028D6
:1029A000EBD003275FFA87F948460AF045FB012878
:1029B0001DD1224639464046FFF791FFB8B19DF838
:1029C0000710484607F0B4FA10F0010F824605D010
:1029D0002B4632462146484607F0ACFC1AF0020F5F
:1029E00005D02B4632462146484607F099FC013F68
:1029F000D8D1C2E70420C1E70320BFE710B49DF897
:102A0000044001945DF8044BFFF797BF0022C0E932
:102A100001220261014A0160C26070475D1D000031
:102A200038B5104B0025C0E902350F4B0560C0E9F1
:102A300005350E4B8580C0E908350D4B0446C0E9CD
:102A40000B3529463830FFF7E1FF294604F14C00E9
:102A5000FFF7DCFF294604F16000FFF7D7FF2046AF
:102A600038BD00BFE8680300DC670300EC670300C3
:102A7000F868030038B50446FFF7D2FF002262670A
:102A800004F17E0304F1F60123F8062C23F8042C4C
:102A900003F8022C06338B42F6D104F1F00204F560
:102AA0008C73002122F8021B9342FBD104F5A07223
:102AB000002123F8021B9A42FBD14FF0000384F857
:102AC000403104F5CA7204F5A273002543F8045B93
:102AD0009A42FBD184F89451A422002104F5CC70D1
:102AE00032F084FE5C22002104F50F7032F07EFE8D
:102AF000C4E9A655A4F8A05284F8A252204638BDD5
:102B000010B50B4C2378BFF35B8FDB070ED4204648
:102B10002CF05AF850B10748FFF7ACFF20462CF0D4
:102B200075F8054A054903482CF03FF8014810BDE7
:102B3000FC0F002014100020E0000020011E000007
:102B400010B503460C4607C983E80700E268DA605F
:102B500000221A61184610BD70B5044686B0236B7A
:102B60006363606B38B1C36821469847636B002B81
:102B7000F5D01B69F4E7206B28B1056914212CF00E
:102B80001BFA2846F8E72063A080E06828B10569B1
:102B900014212CF011FA2846F8E7E060A06928B16A
:102BA000056914212CF008FA2846F8E7656AA06147
:102BB00035B12E69284614212CF0FEF93546F7E789
:102BC0002946656201A8FFF721FF01A904F1380039
:102BD000FFF7B6FF294601A8FFF718FF01A904F186
:102BE0004C00FFF7ADFF294601A8FFF70FFF01A931
:102BF00004F16000FFF7A4FF284606B070BD000096
:102C000038B50446FFF7A8FFD4F8985255B16B6960
:102C1000288AC4F8983207F0DFFC182128462CF0E7
:102C2000CBF9F1E7D4F89C5235B12B68C4F89C324B
:102C3000284632F08DF9F5E7B4F8A80107F0CCFC8E
:102C4000B4F84C0207F0C8FCD4F8D00132F080F997
:102C50002846064AA4F8A05284F8405184F89451BA
:102C600004F1780107F0F4F8284638BDA32E0000DF
:102C7000FFF7C6BF38B504460D466368A360A06879
:102C800038B1C36829469847A368002BF5D01B6963
:102C9000F4E738BD2DE9F04F87B00E46BDF840A0EF
:102CA000DDF844900746144651464A463046984659
:102CB00007F0AEFC054688BB182C48D032D8122C41
:102CC00047D0162C14BF00240424FFF719FF314607
:102CD000FFF7CAFD8346002841D0FFF7D9F8002846
:102CE0003DD000235846039305930197ADF8086043
:102CF000ADF80A80ADF80CA0CDF81090FFF7C8F839
:102D000068B30023ADF8143001A9DBF84C300BF1A7
:102D100040009847BDF814300BB3DDB2284607B029
:102D2000BDE8F08F522C16D0D22C16D1FFF7E8FE5A
:102D3000436F53B1FFF7E4FE446F384608F002FCDE
:102D400039460246204600F029FD0324BDE706244B
:102D5000BBE70124B9E70224B7E70446B5E70197CA
:102D6000ADF808608DF80A40ADF80C80ADF80EA003
:102D7000CDF81090FFF7C4FE01A91430FFF77AFFD9
:102D8000CCE738B504460D466368A360A06838B147
:102D9000C36829469847A368002BF5D01B69F4E760
:102DA00038BD2DE9F04387B00D461F460E9E804684
:102DB000FFF7A6FE2946FFF757FD044630B3FFF79D
:102DC0005BF818B34FF000092046CDE90399CDF820
:102DD0001490CDF80480ADF80850ADF80A70FFF7F4
:102DE0004BF868B104F12C00A36BADF8149001A965
:102DF0009847BDF8140018B1C0B207B0BDE8F08321
:102E0000049B7360B368BDF80C201A800024CDE9E0
:102E10000344B3680594ADF80850ADF80A701B88F8
:102E2000ADF80C3073680493CDF80480FFF768FEAA
:102E300001A92030FFF7A5FF2046DEE7C368184749
:102E400038B504460D466368A360A06838B1C3680E
:102E500029469847A368002BF5D01B69F4E738BDD5
:102E600008B5034608461146421E042A0AD8DFE880
:102E700002F01209030A0E0003F138009B6B0BB13C
:102E8000FFF7DCFF08BD03F14C00DB6CF7E703F153
:102E900060001B6EF3E7012103F10800FFF7D0FF8C
:102EA000F0E713B5C388044613F0030F14BF0321E2
:102EB00004210191FFF724FEA2880199FFF7D0FFBA
:102EC00002B010BD10B54388122B04460AD1FFF79B
:102ED00017FE006870B10368E28921881B68BDE8AD
:102EE000104018470F2B05D1FFF70AFE01210830CB
:102EF000FFF7A6FF10BD000008B542F60211024818
:102F0000FEF791FF08BD00BF0010002000207047B1
:102F1000704770470120704770B501F108040646FC
:102F200005460FCC0FC523682B60304670BD704737
:102F300070477047704770477047704770477047D9
:102F4000704770477047704703680BB108461847D1
:102F5000704710B51C2104462CF02EF8204610BDF9
:102F600010B5202104462CF027F8204610BD37B5B7
:102F70000446057A0BF0FEF80022CDE90022034654
:102F800004F10F0204F1090128460AF06DFD03B0B7
:102F900030BD70B5421E00234D1E9D420CD912F863
:102FA000016F741EE4B2FD2C18D91BB112F8014C4C
:102FB000B44213D10133F0E7435D03F03F033F2BED
:102FC00006D1014411F8020CFF3818BF012070BD72
:102FD00023B9084410F8020C0038F6E70120F6E7A0
:102FE000437903F0C003C02B02D10621FFF7D1BF04
:102FF00000207047437903F0C003402B03D1032125
:103000000844FFF7C6BF00207047037819B143F0AA
:1030100004030370704703F0FB03FAE770B4D0E9D0
:1030200001340568661005EB6400E40744BFAC5941
:10303000E35870BC184730B4D0E901320468551029
:1030400004EB6200D20748BF625930BC48BFD35876
:10305000184770B4D0E901340568661005EB6400C8
:10306000E40744BFAC59E35870BC184770B4D0E9CA
:1030700001340568661005EB6400E40744BFAC59F1
:10308000E35870BC184770B4D0E901340568661085
:1030900005EB6400E40744BFAC59E35870BC184723
:1030A00030B4D0E901320468551004EB6200D20755
:1030B00048BF625930BC48BFD358184710B4D0E954
:1030C00001320168541001EB6200D20748BF0A596F
:1030D0005DF8044B48BFD3581847000038B5064B7D
:1030E00003600446406828B1056914212BF064FF91
:1030F0002846F8E7204638BD886B030010B5044623
:10310000FFF7ECFF20460C212BF056FF204610BDA8
:103110000022026082800A6802608A88828070478A
:10312000006810B103681B6818477047006D20B134
:1031300083688B4201D0C068F9E7704710B5044638
:10314000FFF7F4FF28B103682146DB68BDE81040B3
:10315000184710BD13B504460192FFF7E7FF38B1D9
:103160000368019A9B68214602B0BDE810401847E9
:1031700002B010BD38B50446E36A2363206B38B152
:10318000C36821469847236B002BF5D01B69F4E7F1
:10319000E06A28B1056914212BF00EFF2846F8E7F4
:1031A000E062A06828B1056914212BF005FF2846CC
:1031B000F8E7A060606928B1056914212BF0FCFED6
:1031C0002846F8E76061206A28B1056914212BF0D0
:1031D000F3FE2846F8E7206238BD10B50446FFF735
:1031E000C9FF012384F85430206D20B103682146C3
:1031F0001B699847F8E784F8540010BD08B5FFF73D
:10320000ECFF08BD07490022C0E90112064902602F
:10321000C0E904120549C0E907120549C0E90A12CC
:10322000704700BFEC670300DC670300FC67030026
:103230008468030038B504460D46FFF7E3FF0E4AE5
:1032400062640E4A65630023C4E90F33A364A36379
:10325000C5E902230A4A84F85430C4E91333C5E9A6
:103260000424084A6C60C5E90623074B2B62636B94
:1032700020461C6038BD00BF492F0000F33200001B
:103280001D3000003D3100003730000038B5036AC2
:1032900004460D465BB16362606A40B1C36829466B
:1032A0009847636A0BB9236AF5E71B69F3E738BDF2
:1032B0001FB50023CDE90133137800911B2B04D0F7
:1032C0001D2B11D005B05DF804FB5388ADF8043018
:1032D00001238DF806309368ADF8083069465368CD
:1032E0000393FFF7D3FFEDE75388ADF804300223D3
:1032F000EFE708B51378013B1C2B12D8DFE803F089
:103300000F110F110F110F110F110F110F110F11BD
:103310000F110F1111110F110F1112111200FFF7E0
:1033200019FF08BDFFF7C4FFFBE70000014B93F84E
:1033300081007047B03B002007B5084611461A4689
:103340009DF814300093D2B29DF81030C0B20AF04C
:103350007FFF002003B05DF804FB07B50846114667
:103360001A469DF814300093D2B29DF81030C0B2C6
:103370000AF0B2FF002003B05DF804FB08B5084670
:10338000C0B2D1B20AF0B6FE002008BD08B50846AA
:10339000C0B2D1B20AF0BFFF002008BDF0B589B0BD
:1033A00001AD144602F1100C0F462A4620686168F0
:1033B0002E4603C6083464453546F7D15968186867
:1033C0000E9B05AC1B8803C4ADF81C309DF83C3047
:1033D000002BF8B214BF022101210AF059FF00208E
:1033E00009B0F0BDF0B589B0002301ACCDE90533DB
:1033F000ADF81C3002F1100713460E46224618683D
:103400005968254603C50833BB422C46F7D1F0B2B4
:1034100003210AF03DFF002009B0F0BD08B50846C1
:103420009DF8081059B9002B14BF02210121134641
:10343000C0B20A4601210AF07FFF002008BD032127
:10344000F5E708B5084600231A461946C0B20AF047
:1034500073FF002008BD0000F7B514461A464B1E46
:10346000022B0E462CD800EB81077D6D9DB104F137
:10347000100354F8041B45F8041B9C42F9D1F0B228
:10348000796D019008F04CF80198089908F052F80D
:10349000002003B0F0BD0B49019210202BF08AFDF3
:1034A000019A40B1034604F1100154F8045B43F85B
:1034B000045B8C42F9D178650028E0D10720E8E769
:1034C0000420E6E778A0030038B54B1E022B0D461A
:1034D0000FD800EB8104606D20B110212BF06CFD42
:1034E000002363650022E8B2114608F019F80020B5
:1034F00038BD0420FCE708B50846082105F0BCFDEE
:10350000002008BD08B50846C0B210210AF002FE2E
:10351000002008BD38B50446206B28B1D0E900353D
:103520005B6898472563F7E738BD10B50446FFF799
:10353000F1FF204610BD90F8343070B5044603B159
:1035400019B1256B15B984F8345070BD012384F886
:103550003430D5E9003628469B6898472B682846C2
:103560005B6898472663F0E708B5036B23B90163EE
:103570000021FFF7E0FF08BD1A465B68002BFBD176
:103580005160F5E710B5002444600172094C1168E0
:103590009288C0F80910A0F80D20046000F10F0215
:1035A00003F1100153F8044B42F8044B8B42F9D15C
:1035B00010BD00BF986B030073B505460E46202072
:1035C0000849CDE900322BF0F5FC044640B1314604
:1035D000DDE90032FFF7D6FF21462846FFF7C4FF9A
:1035E00002B070BD78A0030037B50446CDE90032C3
:1035F0000D46FFF79BFE40B12046DDE9003229462B
:10360000FFF7DAFF002003B030BD0220FBE708B56A
:1036100013463AB1917D4069C943063301F0010177
:10362000FFF7E2FF08BD08B5036A2BB140694FF010
:103630000802FFF7A3FE08BD0920FCE770B50546A8
:10364000C068134602680C46566B0A4605F1240111
:10365000B047503522461034106851682B4603C3DA
:103660000832A2421D46F7D170BDF0B500231427E1
:1036700007FB03F2841894F88B603546F60707D4ED
:103680007C3245F00103104484F88B30E167F0BDD3
:103690000133052BECD10020F9E770B5002214248A
:1036A00000F17C0504FB02F3C61896F88B60F60760
:1036B00005D5EE588E4202D17C33184470BD0132DC
:1036C000052AEFD10020F9E710B51446FFF7E5FF12
:1036D00040B1037C64F3410303741CB9DBB264F3AF
:1036E0004513037410BD70B5054600220C46FFF764
:1036F000EBFFE86803682146DB68BDE87040012203
:1037000018470000F7B50646144601220D46FFF79C
:10371000DBFFF0680B4A03680A27DE690523B4FB68
:10372000F2F101F1300C0DF803C0013B02FB114432
:10373000591C92FBF7F2F2D16A462946B04703B012
:10374000F0BD00BFA086010070B5064615460122F7
:103750000C46FFF7B9FFF06803682A4621469B6ACA
:10376000BDE87040184770B5054601220C46FFF7CA
:10377000ABFFE868036821465B6ABDE87040184704
:1037800070B5054601220C46FFF79EFFE868036806
:1037900021461B6ABDE8704018470000036A13B554
:1037A00004462BB90B490C4840F26A522AF0F8FD46
:1037B0000192FFF772FF034648B1206A019A01683F
:1037C0004C6C5968234602B0BDE81040184702B05F
:1037D00010BD00BF0869030051690300036A70B59A
:1037E000054616462BB9104910484FF4CE622AF010
:1037F000D7FDFFF752FF0446A0B1286A616803684D
:103800009B68984770B1237CC279C3F3400363F38C
:103810008612C271286A6168036832469B6ABDE8F5
:103820007040184770BD00BF08690300516903006C
:1038300037B5056A04462DB90C490D4840F2866239
:103840002AF0AEFDCDE90023FFF727FF014650B176
:10385000206A49680468DDE90023E46AA44603B0ED
:10386000BDE83040604703B030BD00BF08690300C9
:1038700051690300036A70B5054616462BB90C4919
:103880000C4840F294622AF08BFDFFF706FF0446D5
:1038900068B1286A616803689B68984738B1286AEC
:1038A0006168036832469B69BDE87040184770BD87
:1038B000086903005169030037B5056A04462DB94C
:1038C0000C490D484FF4D5622AF06AFDCDE900237A
:1038D000FFF7E3FE014650B1206A49680468DDE95C
:1038E0000023E469A44603B0BDE83040604703B05C
:1038F00030BD00BF0869030051690300036A70B559
:10390000054616462BB90C490C4840F2B6622AF01F
:1039100047FDFFF7C2FE044668B1286A6168036884
:103920009B68984738B1286A6168036832461B6B08
:10393000BDE87040184770BD086903005169030075
:10394000036A2DE9F0410546884617462BB916490A
:10395000164840F2DC622AF023FDFFF79EFE064681
:10396000F8B1286A716803689B6898470446C0B13B
:10397000337CC279C3F3400363F34512C271286AF2
:10398000716803683A461B6C9847E868E3790268F7
:10399000946B41463A46A446C3F34013BDE8F04158
:1039A0006047BDE8F08100BF08690300516903006A
:1039B000036A70B5064614464BB3FFF76EFE054624
:1039C00008B9042070BD306A696803689B6898472D
:1039D0000028F6D0EB7B13F0200211D0C3795A06F1
:1039E00003D4287C10F0020007D01B0603D5042363
:1039F00023700020E6E70323FAE702232370E1E7C0
:103A000013F0080001D00123F2E72070DAE7092063
:103A1000D8E7000037B51446026A05462AB90D49B1
:103A20000D4840F2CA622AF0BBFC0193FFF735FE55
:103A3000014668B1286A019B4968E2B20468646B78
:103A4000B2FA82F25209A44603B0BDE830406047A2
:103A500003B030BD086903005169030070B5054625
:103A6000164600220C46FFF72FFEE868036866F052
:103A70007F022146DB68D2B2984721462846FFF7ED
:103A80000CFE68B1C37B03F01803182B08D1E8685B
:103A9000036821469B69BDE870404FF0000218475B
:103AA00070BD036A37B504460D46A3B1FFF7F5FDB7
:103AB00098B1017C94F876308DF8043001F0010162
:103AC00001A8FFF7A2FA9DF8042060692946FFF7D4
:103AD0005DFC03B030BD0920FBE70420F9E70000DE
:103AE000F0B5036A87B004460D462BB91149124858
:103AF00040F24D522AF054FCFFF7CFFD80B1266A08
:103B00000E4A3368039200229F6B04920C4B42686A
:103B10000593CDE90032029402AB0ECB3046B84794
:103B2000E0680368DB680022294607B0BDE8F04082
:103B3000184700BF08690300516903000F360000F1
:103B40008730000070B50022142400F1800504FBCA
:103B500002F3C61896F88B60F60705D5EE588E422C
:103B600002D17C33184470BD0132052AEFD1002008
:103B7000F9E70000036A73B5064614462BB91349EA
:103B8000134840F213422AF00BFCFFF7DBFF054617
:103B900080B1306A696803689B68984750B14CB13E
:103BA000C27929687069C2F38013120604D52246CF
:103BB000FFF718FC02B070BD019304F110030093ED
:103BC000224604F11203FFF7E9FBF3E7086903005B
:103BD00051690300036A73B5054616462BB91049AF
:103BE000104840F22C422AF0DBFBFFF7ABFF044603
:103BF00088B1286A616803689B689847034650B19A
:103C0000686921684EB1DB79DA090092C3F3801349
:103C10003246FFF703FC02B070BDFFF712FCFAE773
:103C2000086903005169030073B506461546FFF79E
:103C300089FF044680B17DB1306A616803689B6882
:103C4000984748B1C3792A69009221687069C3F323
:103C500040132A46FFF700FC02B070BD38B5044699
:103C60000025C0E900550830FDF724F9E5732574F7
:103C7000204638BD30B587B00C4601A8FFF7EEFFEF
:103C800005AD01AA2346144603CCAC421860596026
:103C9000224603F10803F6D122781A7007B030BD2E
:103CA000036A70B504460E462BB90C490C4840F225
:103CB000CD422AF075FBFFF7F0FC054660B13146B6
:103CC0006069FFF701FC206A696803689B6E98478A
:103CD00029462046FFF7CEFF70BD00BF08690300EC
:103CE0005169030008B5FFF79EFC08BD08B5FFF752
:103CF0005FFE08BD10B50C4603F0FEFFE4B20121E3
:103D000001FA04F4044214BF0846002010BD10B5A7
:103D1000044603F0E7FF01462046FFF7F9F9204685
:103D200010BD03460A8B486918609A801846704790
:103D300008B50346086858618A881A83084609F05E
:103D400049FC002008BD07B5009200220B46104632
:103D5000032107F01BFE002003B05DF804FB08B54B
:103D6000FFF7F1FF08BD07B50B46009203210122C2
:103D7000002007F00BFE002003B05DF804FB08B53F
:103D8000FFF7F1FF08BD1FB5134671B1827E8DF8B4
:103D90000F200021CDE900110DF10F02012009F0E3
:103DA000A7FE002005B05DF804FB09F0D7FEF8E798
:103DB0001FB5ADF80630BDF81830ADF80830BDF8C5
:103DC0001C30ADF80A300846BDF82030ADF80C3094
:103DD00001A9BDF82430ADF80420C0B2ADF80E3012
:103DE00009F0FAF8002005B05DF804FB08B5D2B27E
:103DF000C9B2032009F0D8F8002008BD08B508466C
:103E0000114607F047FE002008BD1FB508461946B9
:103E10001446039008F03AFC079B03980093002295
:103E20009DF81830E1B207F0B1FD002004B010BDDC
:103E300013B5059C01949DF810400094FFF7E5FF31
:103E400002B010BD1FB5084619461446039008F08D
:103E50001DFC079B0398009301229DF81830E1B2E6
:103E600007F094FD002004B010BD13B5059C01942B
:103E70009DF810400094FFF7E5FF02B010BD08B5B3
:103E8000104619B108F084FB002008BD08F094FB2F
:103E9000FAE703F03DBFBF207047FB20704708B52D
:103EA00003F03CFF032828BF0320C0B208BD08B5BB
:103EB00007F0DEFD002008BD10B50246002392F891
:103EC0002D40022C07D192F827408C4203D120309C
:103ED00000EB031010BD0133032B02F11002EED1F1
:103EE0000020F7E710B50246002392F82D40022C7F
:103EF00006D1946AA14203D1203000EB031010BD1B
:103F00000133032B02F11002EFD10020F7E710B5C7
:103F10000246002392F82D40012C07D192F8274049
:103F20008C4203D1203000EB031010BD0133032B72
:103F300002F11002EED10020F7E730B50D4689B04E
:103F400059B30021FFF7E3FF0446C0B1037B0290A1
:103F5000002B4FF000058379019300950BBF4FF4C0
:103F6000A0632B46012204222946032009F016FAF9
:103F7000A06020B302236373284609B030BD8DF8DA
:103F80001400ADF81C008DF8180006AB07AA05A9AF
:103F9000012007F023FD2046EFE7FFF78DFF0446E1
:103FA00030B1017A1622032008F0FEFF6573E3E7C3
:103FB0008DF81C0007A9012007F03CFDEBE70C2061
:103FC000DBE72DE9F04F032A8BB0834692469946F2
:103FD00072D800294ED00024A0460A264FF6FF775B
:103FE000A2453FD9149B19F8041033F814307343D9
:103FF000BB4228BF3B4658460593FFF788FF19F898
:104000000410059B0546D8B1027B0290002A8279F4
:10401000019208BF4FF4A0634FF0000200929BB2E0
:104020000CBF01220422032009F0B8F9A86018B9D6
:104030000C200BB0BDE8F08F02236B730134CFE787
:104040000AAA424402F8101C1599095D02F80C1CDA
:104050000AAA02EB480208F1010822F8083C5FFABC
:1040600088F8EBE707AB08AA06A9404607F0B6FCBC
:104070000020DEE70C460D460F46A24517D919F879
:1040800004105846FFF718FF064638B1017A162289
:10409000032008F089FF77730134EEE70AAB2B4465
:1040A00019F8042003F8082C0135EDB2F4E708A94B
:1040B000284607F0BFFCDBE70420BAE790F82D3074
:1040C00033B190F83D303BB190F84D3033B9022315
:1040D000203000EB031070470123F9E70020704700
:1040E00082B0F8B507469DF8246007931446FFF7A1
:1040F000E3FE054628BB01463846FFF708FF0346A6
:1041000098B1012C01D0042C0DD19E71DDE907017D
:10411000221F54425441186099801C730020BDE84E
:10412000F84002B070474573F8E7012C01D0042C29
:10413000F4D13846FFF7C2FF034620B10122427393
:10414000E3E70620EBE70C20E9E72DE9F7439DF8CC
:1041500028909DF834809DF82C609DF838700546B5
:104160000020DCB207F0B2FC484607F0D1FC414623
:10417000002007F0BFFC3946002009F05FFA0C9BD5
:1041800032462146002007F0E1FB0C9A8DF80460CE
:1041900052F8043B1288ADF8002000212246284640
:1041A000FFF79EFF03B0BDE8F0832DE9F04F85B027
:1041B00016469DF840208DF80D209DF854208DF86E
:1041C0000E2016F0100F9DF85C208DF80F2007468A
:1041D0000D469DF83CB09DF844809DF84CA006F03B
:1041E0000100C6F34002C6F38001C6F3C004C6F363
:1041F00000190FD029B914B900285FD0A2B9042042
:1042000059E0002AFBD10028F9D0002C0CBF04246F
:10421000012409E0002956D1002CF0D100284DD00E
:10422000002A14BF0024052499B2BDF8382028467E
:1042300007F04CFC9DF80D0007F06AFC5FFA8BF16B
:10424000284607F057FC5FFA8AF20021284609F059
:10425000FAF99DF86410284608F008FA9DF80F3026
:104260009DF858209DF80E10284608F0EBF99DF9AE
:104270005020C6F38011284608F0D2F94946284656
:1042800008F0AEF9C6F34011284608F0B9F9129BC0
:104290005FFA88F22146284607F058FB129A8DF8FB
:1042A000048052F8043B1288ADF8002029462246CB
:1042B0003846FFF715FF05B0BDE8F08F002A0CBFA8
:1042C00003240224B0E710B1002A9ED097E7002A09
:1042D00014BF07240624A7E72DE9F04F89B0044650
:1042E0000B8891F804B091F808A091F80990019317
:1042F0000D4602A80A31FEF70BFF05F1170104A8CD
:10430000B5F810806F8AAE8AFEF702FF05F11D0135
:1043100006A8FEF7FDFE019B02986360BDF80C3015
:10432000C4F80A00E3810498BDF81430C4F81600FC
:1043300063830698BDF81C30E0610122204622709C
:1043400084F801B084F808A084F80990A4F81080DB
:104350006782A682238409B0BDE8F08F70B502237E
:10436000044603710D46054B44F8083B06460FCD45
:104370000FC42B682360304670BD00BFAC6B0300D8
:1043800010B50446FCF796FD0023A3716373204625
:1043900010BDF0B585B0044600F1300602AF6846A6
:1043A000FFF7EEFF6A4604F12003154603CDBD4238
:1043B000186059602A4603F10803F6D1286818608E
:1043C0001034AA889A80B442E9D1002005B0F0BD2B
:1043D00070B5144E3578BFF35B8F15F001051FD112
:1043E00030462AF0F1FBD8B10F4C04F114002560DF
:1043F0002561FCF75FFD04F12000A577FFF7C0FF02
:1044000004F13000FFF7BCFF04F14000FFF7B8FFF4
:1044100030462AF0FBFB054A054920462AF0C5FB39
:10442000014870BDB8120020BC120020E00000203E
:10443000472F000038B50B4B0B4D044640F8C83FE2
:10444000FBF7A8FE204640F8885FFBF7A3FE204656
:1044500040F8485FFBF79EFE2046FEF73FFE2046F1
:1044600038BD00BF4C6503007C65030008B580695A
:10447000FFF740FC08BD08B58069FFF70AFD08BDDD
:1044800008B58069FFF707FD08BD08B58069FFF72B
:1044900004FD80B208BD37B5044668460D46FEF7F8
:1044A00037FE6846FEF79CFDA8B1A0692946FFF7D4
:1044B0003FFC70B9012384F824302B68C4F8253000
:1044C000AB88A4F829302B68C4F83D30AB88A4F839
:1044D000413003B030BD0420FBE782B002AB03E9FA
:1044E00003009DF80500801101280BD0032803D09C
:1044F00028B1042002B0704700201070FAE70123B1
:104500001370F7E7022313700020F3E737B54B78F9
:1045100005460C4683B9006918B10A7A4968FFF765
:10452000BFFBE86840B103686168227A00919B6A2A
:104530008DF804206946984703B030BD70477FB5B9
:1045400005460C460026286A02A9CDE90266FEF758
:10455000D2FF10B1002004B070BD9DF80D3002A94B
:1045600003F03F0368468DF80D30FEF7D1FD00984B
:10457000BDF804302060A38021466846FEF7C8FDE0
:104580009DF8053013F0C00FDDD106216846FEF717
:1045900000FD0028DFD1D6E730B4C9B2C0689DF86D
:1045A0000850002918BF0B2130B104688DF808505D
:1045B000246BA44630BC604730BC7047C06810B460
:1045C00028B10468646BA4465DF8044B60475DF84D
:1045D000044B704730B4C9B2C0689DF80850002938
:1045E00018BF0B2130B104688DF80850246BA44625
:1045F00030BC604730BC7047F0B5C06887B09DF8EC
:1046000030709DF838609DF84050C8B1C9B2046858
:104610008DF8083000290D9B039318BF0C21BDF8BD
:104620003C3024698DF80410ADF806208DF809702F
:104630008DF81060ADF812308DF8145001A9A04724
:1046400007B0F0BD07B5C06828B10368ADF8041025
:104650009B6901A9984703B05DF804FB13B5C068D6
:1046600040B1046824688DF800108DF80120019392
:104670006946A04702B010BD08B5FFF7F7FE08BDB8
:1046800008B54FF00C01FFF7F7FF08BD10B5044661
:10469000FFF7F6FF30B1A069FFF701FC0F2828BF34
:1046A0000F2010BD0120FCE790F8433073B504469D
:1046B000A3B3FFF7E5FFD0B1002504EBD50305F068
:1046C000070293F808311341DB07EEB20CD56846B8
:1046D000FCF7F0FB69462046FFF731FFF0B1A06917
:1046E0006A463146FFF78AFB01350F2DE5D1684652
:1046F000FCF7E0FB69462046FFF721FF70B1A06997
:104700006946FFF715FB48B90123009884F8243067
:10471000BDF80430C4F82500A4F8293002B070BDFB
:1047200008B5FFF7A8FE08BD08B5FFF7A9FE08BD4C
:1047300008B5FFF7AAFE08BD08B5FFF7ACFE08BD37
:10474000024A026000224260C2607047886B030028
:1047500038B504466368A360A06838B1C3682146D1
:104760009847A368002BF5D01B69F4E7606828B16F
:10477000056914212AF020FC2846F8E76060E06013
:1047800038BDB1F5486F28BF4FF44861062938BFDE
:10479000062101807047B1F5486F28BF4FF448618A
:1047A0000A2938BF0A21018070472DE9F043C66805
:1047B00087B00C4616B34D783368D1F80490098958
:1047C0005F6A002D684618BF0B25FFF7DAFFA18945
:1047D000B4F80A8001A8FFF7DEFFBDF80030ADF89D
:1047E0001030BDF804308DF80850CDF80C90ADF8BD
:1047F0001280ADF8143002A93046B84707B0BDE8C2
:10480000F08300002DE9F04190F8123113F001031C
:104810008AB00C462FD0C56835B32B68D1F8048018
:1048200009891E6A04A8FFF7ACFF618905A8FFF794
:10483000A8FFE189A78906A8FFF7ADFFBDF81030F2
:10484000ADF82030BDF81430ADF82230BDF8183086
:10485000CDF81C80ADF82470ADF8263007A92846A5
:10486000B0470AB0BDE8F08109490A4800952B46D7
:104870002A462AF007F8CDE90233CB8901938B89C8
:1048800000934B890A8980694968FFF791FAE8E744
:1048900055690300480118802DE9F04390F8124152
:1048A0008BB014F00104BDF84870BDF84C800D4683
:1048B0001E462CD0C4681CB32368114604A8D3F844
:1048C0002090FFF75EFF314605A8FFF75AFF4146EB
:1048D00006A8FFF760FFBDF81030ADF82030BDF836
:1048E0001430ADF82230BDF818300795ADF82470BB
:1048F000ADF8263007A92046C8470BB0BDE8F083C5
:104900000749084800942346224629F0BBFFCDE919
:104910000244CDE900788069FFF74AFAEDE700BF6D
:10492000556903004801188038B500250446056024
:1049300005718560057300F10D0300F12D0203F888
:10494000015B9342FBD1256384F8345004F13500B8
:10495000FDF7FEF804F14500FDF7FAF8C4E9165535
:104960002566204638BD000010B50B4C2378BFF3F8
:104970005B8FDB070ED420462AF026F950B107489A
:10498000FFF7D2FF20462AF041F9054A05490348BE
:104990002AF00BF9014810BD0C1300201013002061
:1049A000E00000202B35000008B5062230F0E8FDBD
:1049B000B0FA80F0400908BD036A37B505462BB947
:1049C0001A491B4840F2734229F0EAFCFEF765FEE3
:1049D000044688B1286A616803689B68984758B1A3
:1049E00095F876301B0709D505F12A01FFF7DCFFA2
:1049F000237C60F30413237403B030BD237CC3F322
:104A0000800262F30413237405F160010191FFF742
:104A1000CBFF30B9019904F10800FFF7C5FF00286A
:104A2000EAD0237C43F01003E5E700BF08690300E8
:104A300051690300F0B5036A85B004460E46002BA9
:104A400054D0FEF72AFE0546002851D094F879305C
:104A50001BB994F876301A074CD50022314620460F
:104A6000FEF732FE31462046FFF7A6FF94F8772086
:104A70002B7C94F87670DB07C2F3C00343F002038B
:104A80008DF8083095F90F3048BF47F00407002B28
:104A9000B6BFEA7BC2F38001C2F3801102A8FEF721
:104AA000B4FA94F87A2094F877300AB18DF8083087
:104AB0008DF80C3095F90F30E97B002B04DAC1F347
:104AC000801103A8FEF7A1FA2A7C9DF808309DF812
:104AD0000C108DF804108DF8003060693B46C2F36D
:104AE00000123146FEF728FC05B0F0BD0920FBE7B7
:104AF0000420F9E70620F7E708B5FFF79BFF08BD9C
:104B00002DE9F04105460E461746FEF7C6FD044660
:104B100040B3FBB2022B0DD1C37B23F0380343F02B
:104B20002003E373E86803683A4631469B69BDE8B1
:104B3000F0411847DA1E012A05D8C37B23F03A0357
:104B400043F02203EDE7002BECD1C37B03F0180305
:104B5000082BE7D101682846FFF7CEFFE37B43F03F
:104B60001003E373BDE8F081F0B5036A85B0054634
:104B70000E46002B56D0FEF790FD0446002853D079
:104B800031462846FFF718FF237C95F8767095F894
:104B90007A10DA07A27B48BF47F0040702F00F0340
:104BA00002F0040200293AD095F877100B408DF8F6
:104BB00008306AB194F90F30002BB5BFE17B95F84E
:104BC0007720C1F38011C2F3800102A8FEF71DFA1D
:104BD00095F87720A37B02EA13138DF80C305B075E
:104BE0000BD594F90F30002BB6BFE27BC2F38001E6
:104BF000C2F3801103A8FEF708FA227C9DF8083062
:104C00009DF80C108DF804108DF8003068693B4653
:104C1000C2F300123146FEF7A0FB05B0F0BD03F071
:104C20000A03C4E70920F8E70420F6E708B5FFF710
:104C30009BFF08BD2DE9F04190F879209DF81860A0
:104C40009DF81C7004460D462AB91B0703D4FFF7D4
:104C500049F8BDE8F08129462046FEF71EFD0028F0
:104C6000F7D0037C06F00F066FF3410346EA071600
:104C70008673037494F8783033B1E068036829468A
:104C80009B68BDE8F041184729462046FFF7CEFF54
:104C9000DFE70000036A2DE9F04104460E462BB918
:104CA0001F49204840F2296229F07AFBFEF7F5FC03
:104CB000054648B3206A696803689B689847804640
:104CC00010B304F160073946FFF76EFE28B9394684
:104CD00005F10800FFF768FE98B101223146204631
:104CE000FEF7F2FC3146606904F16602FEF70AFC49
:104CF00039464046FFF758FE30B100232366BB809B
:104D000002E02B7C9A0601D5BDE8F08143F0200338
:104D10002B74E06803683146DB6ABDE8F041184750
:104D2000086903005169030030B587B08B7A8DF8AC
:104D300004300C46CB7A8DF8053005460C310DF168
:104D40000600FEF7E5F9227A616803A8FCF734F85B
:104D5000637A8DF8143001A92846FFF7FFFA284638
:104D600007B030BD2DE9F047C46886B088469DF88D
:104D700038A017461E46CCB1236810999DF83C20F8
:104D8000D3F814906D462846FCF716F895E8030012
:104D900006AB03E90300ADF808808DF80A708DF8C2
:104DA0000B608DF80CA002A92046C84706B0BDE8EC
:104DB000F08700002DE9F04F054695B00C4600261F
:104DC000236820469B689847B0425AD92368F2B2BC
:104DD000DB68214607A8984795F838308BB195F8DD
:104DE0003C30022B0DD19DF81D30012B09D10DF166
:104DF0001E010CA8FEF78CF90CA8FEF7FBF80028A2
:104E00003DD1EF68002F3AD09DF81C309DF92CB0B1
:104E1000042B9CBF1C4A12F803A03A689DF81D3071
:104E200001930DF10C09936800930DF114084846A5
:104E300088BF4FF0000AFCF73DF8DDE90912404653
:104E4000FBF7BAFF019B8DF831300DF11E030D9376
:104E50000E4B0E9398E803000023ADF83E30FF237D
:104E60008DF8403014AB8DF830A08DF83CB0CDF803
:104E7000449003E90300009B0CA93846984701368B
:104E80009EE715B0BDE8F08FD46B03000100FF7FF3
:104E90002DE9F04F1F468DB090F838309DF858A09E
:104EA000179C9DF8709006468846154683B190F889
:104EB0003C30022B0CD15AB11378012B08D1394662
:104EC00004A8FEF725F904A8FEF794F8002838D1C5
:104ED000F668002E35D033689B68002D34D02D78CD
:104EE00004B124789DF878201F9901930DF1080BE7
:104EF0005846FBF761FF9DF860208DF81A209DF958
:104F000064208DF81B209BE803009DF968208DF834
:104F10001C20BDF86C20ADF81E200CAB1D9A8DF83E
:104F200010808DF8115005978DF818A08DF8194054
:104F30008DF82090099203E90300019B04A93046F3
:104F400098470DB0BDE8F08FFF25C9E70022027039
:104F5000427070472DE9F341044688461746002504
:104F60001E46FFF7EDFB089B2362C4E90676C4E901
:104F7000045884F8245004F12500FBF79BFF4FF4FC
:104F80000033A36304F13D06012384F83C3084F828
:104F90002B5084F82C5084F82D502563A58630467C
:104FA000FBF788FF84F8435084F8445004F148002C
:104FB000FBF7F6F904F18800FBF7F2F904F1C800F9
:104FC000FBF7ACF904F58470FFF7C0FF04F58570BA
:104FD000FFF7BCFF04F58670FFF7B8FF04F5877094
:104FE000FFF7B4FF04F58870FFF7B0FF94F81231B3
:104FF000A06965F3000384F81231FFF7CAF9A369C9
:105000000B4A5C60C3E902250A4A1A616846A16935
:10501000FEF787FEBDF804300098A4F84130A3697C
:10502000C4F83D0020461C6002B0BDE8F08100BF1E
:10503000CF610000A1300000CA08012301F0070180
:1050400003FA01F1835C194381547047CA080123B4
:1050500001F007018B40815C21EA03018154704714
:10506000F0B5064685B000F585700C46114615462C
:105070001F46FFF7EBFFF06880B1E4B203689DF8CC
:1050800028205B688DF80450B4FA84F46409029710
:105090008DF80C208DF80D4001A9984705B0F0BDA2
:1050A0002DE9F04F91B00E4607461446FFF7EEFA91
:1050B000B04240F28A8007EBD60306F0070593F86A
:1050C0000A11294111F001017DD12378607E012B65
:1050D000C0F340120C9201D8002A76D0052B6CD870
:1050E000DFE803F00308106B0C68002501234FF084
:1050F00001080AE0012100230D46F8E700230125FD
:10510000A84602E00025A8460123A27B0F9294F94D
:1051100017200D92227E0E9248EA4303C0F300123C
:105120000B9243EA85030C9A94F80D9094F80CB016
:1051300094F80FE094F810A08DF8089043EAC103AA
:1051400043EA021206F00F030A930E9B08930D9B8D
:1051500006930F9B8DF81430C0F3C00104F11103C6
:1051600042EA411100F0070CC0F380120493A368D7
:10517000009341EA82126368B8698DF804C0314631
:105180008DF824A08DF81CE08DF80CB0FFF70DF819
:1051900068B907F588703146B8F1000F10D0FFF7F5
:1051A0004BFFB86907F13D023146FEF727FE11B00B
:1051B000BDE8F08F00252B4699E700252B469FE799
:1051C000FFF744FFEDE70820F1E70420EFE710B513
:1051D00090F8083113F0010388B0044644D14FF42D
:1051E00080614FF40062CDE902120DF11500012239
:1051F0008DF804308DF810308DF812308DF81120B4
:105200008DF813208DF81420FBF754FE7F238DF8C2
:105210001B30BDF81C3023F4FF4323F07F0343F41D
:105220001C53ADF81C309DF80430032B11D1029AA9
:10523000039B6FF07F418A4228BF0A46A02A38BFED
:10524000A0228B4228BF0B46A02B38BFA02302927E
:10525000039301AA00212046FFF722FF94F80831AA
:1052600043F0010384F8083108B010BDF0B587B0F1
:105270000D4606461446FFF709FAA84202D8042054
:1052800007B0F0BD06EBD50305F0070293F808312F
:105290001341DB0704D4002DF1D13046FFF797FF0F
:1052A0003046FFF7EDF928B1224629463046FFF790
:1052B000F7FEE5E7002DE2D12246617E12F8113BB0
:1052C000607B257BA77B029201F007018DF80C1013
:1052D0008DF800002289A188B0698DF810708DF8D2
:1052E0000450FEF732FFCBE708B5FFF7BFFF08BD5C
:1052F000008808B528B9034903484FF4887229F09B
:105300004FF808BD92690300C7690300002A38B549
:10531000044602DB4868904205DA0E490E4840F226
:105320000A3229F03DF85D1C09D0002B02DBD518AC
:10533000A84204DA0749094840F20B32F1E75D1C44
:10534000096808BF831A114420461A46FBF734FD4A
:10535000204638BDB6650300D4690300F369030035
:105360002DE9F04F2DED028B8FB00DF1100B8BE876
:105370000C009DF868309DF86C700D4608EE103AF0
:105380000446FFF783F9A84245D904EBD50905F097
:10539000070899F8083143FA08F3DA0704D4002D16
:1053A00039D12046FFF713FF2046FFF769F928BBE4
:1053B000002D30D1059E1F2E2DDC544B544AD4F8BD
:1053C00018800499002F14BF1F4617461F2E34461D
:1053D00028BF1F24224606A830F002F906ABC4F10C
:1053E0001F022946181930F001FA06AAF1B2404608
:1053F000B8470FB0BDEC028BBDE8F08F2046059E8C
:10540000FFF78EF9B04208DA0023424900931A46AA
:10541000414829F02FFA0420EBE799F80A6146FA8F
:1054200008F616F001060BD12046DDF814A0FFF7B0
:105430007FF9504504DA3949009633463246E7E7AA
:10544000002F53D12046059EFFF76EF9B04247DA90
:1054500099F80A3143FA08F3DB0706D599F81031B9
:1054600043FA08F818F0010F35D1294604F5877082
:10547000FFF7E2FD2A4BA0690393FEF70EFDDDF86E
:1054800014800746C14600230293029B434502D382
:1054900053EA080338D147452AD94FF0030A4F454C
:1054A0003B46029A28BF4B46594606A8FFF72EFFF7
:1054B000069B01939DF81C300093A069039E18EE93
:1054C000103A52462946B047A9EB0709002890D167
:1054D000029B3B44D8E7134900973B463A4697E77F
:1054E000294604F58770FFF7B1FDC3E70E4BC2E70D
:1054F000029B13B94FF0010AD1E74F4534BF4FF07B
:10550000000A4FF0020ACAE7002072E77F3D000060
:105510005F3D00003F6A03000501FF80736A0300DE
:10552000313E0000EE6A03006B3E00001FB502AC86
:1055300084E80C0001230022CDE9003294E80C003D
:10554000FFF70EFF04B010BD13B56C4684E80C00E5
:1055500094E80C00FFF7EAFF02B010BD00230370CF
:105560004370704730B5044685B0FFF7F1F804F199
:105570004800FAF787FE04F18800FAF783FE204618
:10558000FFF77EF800284ED0012303930025039BEC
:105590000E2B25D804EBD30203F0070392F80A215F
:1055A00042FA03F3D80707D5CDE90055A06903AB4C
:1055B00001220021FEF705FD039B04EBD301DAB2C3
:1055C00091F80C1103F0070341FA03F3D90703D54F
:1055D000A0690021FEF753FC039B01330393D6E738
:1055E00004F58470FFF7BAFF04F58670FFF7B6FF85
:1055F00094F80A31DB0707D50021CDE900110B4BE8
:10560000A0690122FEF7DDFC04F58570FFF7A6FF17
:1056100004F58770FFF7A2FF04F58870FFF79EFF7F
:10562000A069FEF744FC002005B030BDD96B030033
:1056300008B5FFF797FF08BD1FB50024CDE9014469
:10564000039400910224694610308DF80640ADF8AD
:105650000420ADF80A30FDF70DFB04B010BD0000CA
:1056600010B586B00446684680E80C0006A800E93C
:105670000C00039110E90700034BE36084E8070086
:10568000204606B010BD00BF533000002DE9F041A8
:105690001F46036A88B0064615462BB92C492D488B
:1056A00040F2A44228F07CFEFDF7DFFF044600280C
:1056B0004BD0EAB2DDE91101E37BA181B2FA82F2BB
:1056C000520962F38203A060E373306A03680EAA92
:1056D0001B6E3946984760600146306A03689B68D4
:1056E000984702460E981060BDF83C30938017F042
:1056F000FD0FD3790CBF0121002161F30003D371A9
:1057000094F90F30002BB5BFE37B96F87730C3F3E5
:105710008013C3F38003C3B1D3799B0715D5376AD0
:105720000D4A3B6804ADD3F820800B4B0293314601
:10573000002328460393FFF793FF63680193079BB9
:10574000009395E80E003846C04708B0BDE8F081E8
:105750000869030051690300293C000010B586B0B8
:105760000446684680E80C0006A800E90C00039196
:1057700010E90700034BE36084E80700204606B009
:1057800010BD00BF6D3000002DE9F043036A89B001
:1057900005460C46002B39D0FDF77FFF064618B9A9
:1057A000042009B0BDE8F083286A716803689B682B
:1057B00098470028F4D0F37B5A0722D5C3795B07BA
:1057C0001AD5D5F82080124AD8F800300024D3F832
:1057D00024900F4B029304AF234629463846039486
:1057E000FFF7BCFF73680193079B0093404697E85F
:1057F0000E00C8472046D4E721462846FFF77CF92B
:10580000CFE721462846FEF74CF9CAE70920C8E74A
:10581000753B0000036A70B505460E4643B3FDF7BD
:105820003CFF044608B9042070BD286A616803681B
:105830009B6898470028F6D0C279E37B510609D5CA
:105840009A0717D443F00803E37331462846FFF75D
:105850009BFFE9E7227C5B0742F00102227431469C
:10586000284602D5FFF748F9DEE7FEF71AF9DBE72D
:105870000920D9E70020D7E708B5FFF7CBFF08BD1F
:10588000F8B5036A04460F46D6B22BB919491A482F
:1058900040F2975228F084FDFDF7FFFE054638B32D
:1058A000206A696803689B68984708B316F0080384
:1058B00008D090F90730002BAABF94F87630002367
:1058C000C3F3C003710702D5C279520608D55BB98C
:1058D000EB7B1B070CD439462046FFF755FF07E04A
:1058E0002B7C43F001032B7439462046FFF704F963
:1058F000F8BD00BF08690300516903002DE9F047B6
:105900009846036A8AB0044617462BB916491748C9
:1059100040F2F76228F044FDFDF7BFFE0546F8B1FE
:10592000206A696803689B689847C8B1D4F82090DA
:105930000F4AD9F8003006AED3F810A00C4B0493F0
:105940002146002330460593FFF708FFCDE9027892
:105950006B680193099B009396E80E004846D04778
:105960000AB0BDE8F08700BF086903005169030071
:10597000D53B00002DE9F041036A88B004462BB9FD
:105980001149124840F2247228F00AFDFDF785FE05
:105990000646A8B1276A0E4A3B6804ADD3F81480C6
:1059A0000B4B02932146002328460393FFF7D6FEB4
:1059B00073680193079B009395E80E003846C04733
:1059C00008B0BDE8F08100BF086903005169030019
:1059D000D53B00002DE9F0418EB00446FEF7C4FF30
:1059E0000646002C5FD00568002D00F08681A37864
:1059F0002A3B122B00F28181DFE813F0130019001B
:105A00002D0034003700730000011F012F01350104
:105A10005401650175017F017F017F017B017B01DD
:105A20007B0121882846FEF75BF801243BE0E27801
:105A30002188531E0D2B03D82846FEF70FF8F4E7F4
:105A4000E02A02D14FF00802F6E7E12AFAD128460F
:105A5000FDF749FEE9E74FF0020221882846FFF7EB
:105A60004FF8E2E74FF00002F7E72379268823B1E9
:105A700031462846FFF70EF9D7E7637963B3FEF79F
:105A800073FF0479F7B294B1FEF76EFF3146826876
:105A90002846FDF737FEFEF767FF032100F10802F5
:105AA000384608F037FB20460EB0BDE8F0810AA862
:105AB000042103F0E1FA0A99914BB1FBF3F2284675
:105AC00003FB121231460A92FDF71CFE0AAA0321BB
:105AD000384608F01FFBA8E731462846FDF743FE8D
